:020000023000CC
:10E000000D94B4F10D94DDF10D94DDF10D94DDF17D
:10E010000D94DDF10D94DDF10D94DDF10D94DDF144
:10E020000D94DDF10D94DDF10D94DDF10D94DDF134
:10E030000D94DDF10D94DDF10D94DDF10D94DDF124
:10E040000D94DDF10D94DDF10D94DDF10D94DDF114
:10E050000D94DDF10D94DDF10D94DDF10D94DDF104
:10E060000D94DDF10D94DDF10D94DDF10D94DDF1F4
:10E070000D94DDF10D94DDF10D94DDF10D94DDF1E4
:10E080000D94DDF10D94DDF10D94DDF10D94DDF1D4
:10E090000D94DDF10D94DDF10D94DDF10D94DDF1C4
:10E0A0000D94DDF10D94DDF10D94DDF10D94DDF1B4
:10E0B0000D94DDF10D94DDF10D94DDF10D94DDF1A4
:10E0C0000D94DDF10D94DDF10D94DDF10D94DDF194
:10E0D0000D94DDF10D94DDF10D94DDF10D94DDF184
:10E0E0000D94DDF10D94DDF10D94DDF10D94DDF174
:10E0F0000D94DDF10D94DDF10D94DDF10D94DDF164
:10E100000D94DDF10D94DDF10D94DDF10D94DDF153
:10E110000D94DDF10D94DDF10D94DDF10D94DDF143
:10E120000D94DDF10D94DDF10D94DDF10D94DDF133
:10E130000D94DDF12A00593D506F727420626C69B4
:10E140006E6B00563D73686F7720696E74657272EE
:10E1500075707420566563746F727300523D447518
:10E160006D702052414D00513D51756974004C3D18
:10E170004C69737420492F4F20506F72747300489C
:10E180003D48656C7000463D44756D7020464C41BD
:10E19000534800453D44756D7020454550524F4DE4
:10E1A00000423D426C696E6B204C454400403D4549
:10E1B0004550524F4D2074657374003F3D43505598
:10E1C00020737461747300303D5A65726F2061640E
:10E1D000647200504F5254004545206572722063AE
:10E1E0006E743D0052656164696E67204545005755
:10E1F00072697474696E672045450020004D75731F
:10E20000742062652061206C657474657200506FC3
:10E210007274206E6F7420737570706F72746564A1
:10E22000005768617420706F72743A006A6D7020D4
:10E2300000726A6D702020006E6F20766563746FC7
:10E2400072005623202020414444522020206F7029
:10E2500020636F64652020202020696E73747275BE
:10E260006374696F6E2061646472202020496E744B
:10E2700065727275707400342E382E3100312E386C
:10E280002E3073766E004F6374203131203230317E
:10E2900034004C6F636B20667573652020203D2031
:10E2A000004578742066757365202020203D20008D
:10E2B0004869676820667573652020203D20004C02
:10E2C0006F772066757365202020203D2000435025
:10E2D000552049442020202020203D200047434352
:10E2E0002056657273696F6E203D200041565220A2
:10E2F0004C696243205665723D20005F5F41565273
:10E300005F415243485F5F3D2000435055205479A0
:10E310007065202020203D2000436F6D70696C6582
:10E3200064206F6E203D20004875683F00426F6F8B
:10E33000746C6F616465723E0041726475696E6FE2
:10E34000206578706C6F7265722073746B35303035
:10E350005632206279204D4C530041546D656761FF
:10E36000323536726672320011241FBECFEFD1E80B
:10E37000DEBFCDBF01E00CBF12E0A0E0B2E0E2E8FA
:10E38000F7EF03E00BBF02C007900D92A430B10776
:10E39000D9F722E0A4E0B2E001C01D92A231B20799
:10E3A000E1F70F9439F30D94BFFB01E80EBF0FEFB7
:10E3B0000DBF11241FBE0D9439F30D9400F080930E
:10E3C000C6008091C00086FFFCCF8091C0008064B1
:10E3D0008093C000089520E030E02817390749F005
:10E3E000EFECF7E03197F1F700C000002F5F3F4FEF
:10E3F000F4CF0895CF93DF93EC01C60FD11DAE018A
:10E4000060E070E06BBFFA018791882321F02196CC
:10E410000F94DFF1F4CFDF91CF9108958DE00F9449
:10E42000DFF18AE00D94DFF10F94FAF10D940EF212
:10E43000CF93DF93EC018991882319F00F94DFF1DA
:10E44000FACFDF91CF910895CF93C82F82958F7027
:10E4500090E3980F9A3310F097E3980F892F0F9459
:10E46000DFF1CF7080E38C0F8A3310F087E38C0FDD
:10E47000CF910D94DFF10F931F93CF93DF93EC01B6
:10E480008B01853691051CF4633071054CF0CE018B
:10E4900064E670E00F945FFB80E3860F0F94DFF17A
:10E4A000CB30D1051CF4023011056CF0CE0164E6CE
:10E4B00070E00F945FFB6AE070E00F945FFB80E315
:10E4C000860F0F94DFF1CE016AE070E00F945FFBDE
:10E4D000805DDF91CF911F910F910D94DFF18091BD
:10E4E000C00087FFFCCF8091C6000895CF93C82F4E
:10E4F00060E083ED91EE0F94FAF18C2F0F94DFF131
:10E50000CF910D940EF24F925F926F927F92AF92E5
:10E51000BF92CF92DF92EF92FF920F931F93CF9310
:10E52000DF93CDB7DEB766970FB6F894DEBF0FBEA8
:10E53000CDBFC82E80E1D82EA12C7E0181E1E80E4E
:10E54000F11C9EE2B92E41305105E1E06E077105E4
:10E5500058F0862F4B8B5C8B6D8B7E8B0F9424F247
:10E560007E896D895C894B89852F4B8B5C8B6D8B8C
:10E570007E8B0F9424F24B89842F0F9424F280E237
:10E580000F94DFF18DE20F94DFF180E20F94DFF161
:10E5900019828E010F5F1F4F4B895C896D897E89BF
:10E5A0002A013B01F1E0CF1661F0CF1630F082E096
:10E5B000C81213C0F201A08010C06BBEF201A79078
:10E5C0000CC0C2014B8B5C8B6D8B7E8B0F94A9FBB7
:10E5D000A82E4B895C896D897E898A2D4B8B5C8B3B
:10E5E0006D8B7E8B0F9424F280E20F94DFF180EE2E
:10E5F0008A0D4B895C896D897E89F8018F3510F40D
:10E60000A08201C0B082FFEF4F1A5F0A6F0A7F0A33
:10E610000F5F1F4F0E151F0509F0C4CF405F5F4FFE
:10E620006F4F7F4F198ACE0101964B8B5C8B6D8BA0
:10E630007E8B0F9418F20F940EF2DA944B895C895A
:10E640006D897E89D1107FCF66960FB6F894DEBFB4
:10E650000FBECDBFDF91CF911F910F91FF90EF9033
:10E66000DF90CF90BF90AF907F906F905F904F9072
:10E670000895CF93DF93CDB7DEB7C353D1400FB624
:10E68000F894DEBF0FBECDBF01E80EBF0FEF0DBF88
:10E6900094B7F894A89514BE809160008861809327
:10E6A000600010926000789493FF05C0E09104022E
:10E6B000F091050219956B9A739A8091C00082605F
:10E6C0008093C00087E08093C40088E18093C100FC
:10E6D0008091C00082608093C0008091C1008861F9
:10E6E0008093C1008091C20086608093C200109226
:10E6F000C50080E18093C4000000C12CD12C7601BC
:10E7000067EC862E6BE1962EA12CB12C78E0772E4B
:10E7100000E010E08091C00087FF06C00F5F1F4F30
:10E7200001151105A9F326C001151105B9F725E05A
:10E730002A95F1F700003FEFC31AD30AE30AF30A60
:10E7400091E080E041E2C4164EE4D406E104F10415
:10E7500008F490E0092F182FC701B601A501940114
:10E760000F9473FB672B682B692BA1F68EB187255D
:10E770008EB9D0CF0130110509F084C7C45DDE4FDA
:10E7800019821882CC52D140A12CB12CC65DDE4F2B
:10E790001882CA52D140812C212C312CCA5DDE4F07
:10E7A000188219821A821B82C652D140C12CD12CE8
:10E7B000760120E030E060E001301105F1F080E00A
:10E7C00090E0DC014091C00047FD17C00196A11DFB
:10E7D000B11D813052E195075AE7A507B10590F3C5
:10E7E000412C512C32016BBEF2018791969101961A
:10E7F00031F3EE27FF270994E2CF8091C600C45D74
:10E80000DE4FA881B981CC52D1401196C45DDE4F54
:10E81000B983A883CC52D140813209F0EBC41A9756
:10E8200008F0E8C4BFEFAB1ABB0AE3E0AE16B104D0
:10E8300009F0E2C405E010E059E1A52EB12C81E217
:10E840000F94DFF1F1E0AF1AB108A114B104B9F7E8
:10E850000F940EF2015011090115110569F710927C
:10E860000E0210920F0210921002109211021092DA
:10E870000A0210920B0210920C0210920D021092DA
:10E88000060210920702109208021092090260E03C
:10E8900089E393EE0F9414F21FEF09E060E08DE23C
:10E8A00093EE0F94FAF10F946FF2982F803608F0E0
:10E8B0009F75903280F0892FCE5CDE4F9883C253D3
:10E8C000D1400F94DFF180E20F94DFF1CE5CDE4F98
:10E8D0009881C253D140963409F4C6C108F097C05C
:10E8E000903409F4FCC008F08BC0903309F4E1C007
:10E8F0009F3309F079C462E08BEB91EE0F9414F230
:10E9000060E089E393EE0F9414F260E089E193EE06
:10E910000F94FAF160E086E892EE0F9414F260E052
:10E920008AE093EE0F94FAF160E08AE593EE0F949B
:10E9300014F260E08BEF92EE0F94FAF186E30F94FD
:10E94000DFF10F940EF260E08DED92EE0F94FAF18C
:10E9500060E087E792EE0F9414F260E08CEE92EEA6
:10E960000F94FAF160E08DE792EE0F9414F260E0FC
:10E970008EEC92EE0F94FAF18EE10F9424F288EA75
:10E980000F9424F282E00F9424F20F940EF260E0D0
:10E990008FEB92EE0F94FAF1E0E0F0E00093570075
:10E9A00084910F9424F20F940EF260E080EB92EECB
:10E9B0000F94FAF1E3E0F0E00093570084910F9494
:10E9C00024F20F940EF260E081EA92EE0F94FAF1D5
:10E9D000E2E0F0E00093570084910F9424F20F944A
:10E9E0000EF260E082E992EE0F94FAF1E1E0F0E0DD
:10E9F0000093570084910F9424F20F940EF24ECF9F
:10EA0000923409F4EDC0953409F404C1EDC3913595
:10EA100009F48EC108F5983409F44AC19C3409F010
:10EA2000E3C362E08EE691EE0F9414F281E40F945A
:10EA300076F282E40F9476F283E40F9476F284E423
:10EA40000F9476F285E40F9476F286E40F9476F2D2
:10EA500087E40F9476F222CF963509F473C1993585
:10EA600009F41FC3923509F0BFC362E08CE591EE53
:10EA70000F9414F240910E0250910F026091100217
:10EA80007091110282E00F9483F280910E029091B6
:10EA90000F02A0911002B09111029F5FAF4FBF4FC4
:10EAA00080930E0290930F02A0931002B093110274
:10EAB000F5CE62E087EC91EE0F9414F210920A0208
:10EAC00010920B0210920C0210920D0210920E0284
:10EAD00010920F02109210021092110275C062E0A3
:10EAE0008DEA91EE0F9414F260E08FEE91EE0F94A8
:10EAF00014F20F940EF2A12CB12CC501875C9C413D
:10EB0000A0E0B0E0ABBFFC0197904AE2442E941025
:10EB100010C00F940EF20F940EF260E084EE91EEAE
:10EB20000F9414F20F940EF2A12CB12C812C912C85
:10EB30002EC0A11422E0B20661F3692DC5010F9425
:10EB4000B1FB911006C060E08BEF91EE0F94FAF1EB
:10EB500003C0892D0F94DFF1FFEFAF1ABF0ACDCFAD
:10EB6000811482E09806F1F0C4010F94A9FB682E8D
:10EB7000811133C060E08BEF91EE0F94FAF16714CE
:10EB800019F03FEFA31AB30A4FEF841A940AC40195
:10EB9000875C9C41A0E0B0E0ABBFFC0177905AE2FB
:10EBA0007512DECF0F940EF20F940EF260E088ED36
:10EBB00091EE0F94FAF161E070E0C5010F943BF221
:10EBC0000F940EF20F940EF21092060210920702AA
:10EBD000109208021092090261CE0F94DFF1CFCF9C
:10EBE00062E081EA91EE0F9414F26B9A739A80912D
:10EBF000C00087FD0CC0739882E390E00F94EBF1A6
:10EC0000739A82E390E00F94EBF1F1CF12B80F9476
:10EC10006FF244CE62E083E991EE0F9414F24091DA
:10EC2000060250910702609108027091090281E08A
:10EC30000F9483F28091060290910702A09108023E
:10EC4000B09109029F5FAF4FBF4F80930602909330
:10EC50000702A0930802B093090281159042A10512
:10EC6000B10508F41BCEB0CF62E086E891EE0F94B8
:10EC700014F240910A0250910B0260910C027091C3
:10EC80000D0280E00F9483F280910A0290910B02B2
:10EC9000A0910C02B0910D029F5FAF4FBF4F8093C8
:10ECA0000A0290930B02A0930C02B0930D02F6CDD2
:10ECB00062E08FE791EE0F9414F260E087EC91EE42
:10ECC0000F9414F260E08BEB91EE0F9414F260E07D
:10ECD0008DEA91EE0F9414F260E081EA91EE0F94C8
:10ECE00014F260E083E991EE0F9414F260E086E89C
:10ECF00091EE0F9414F260E08FE791EE0F9414F20E
:10ED000060E08EE691EE0F9414F260E087E691EEFB
:10ED10000F9414F260E08CE591EE0F9414F260E031
:10ED200083E491EE0F9414F260E086E391EE5FC20B
:10ED300062E087E691EE0F9414F2A12CB12C992495
:10ED400093949FC262E083E491EE0F9414F260E02A
:10ED50008AE593EE0F9414F260E082E492EE0F9451
:10ED600014F2CE5DDE4F19821882C252D140812C3E
:10ED7000912C54012401350176946794579447945B
:10ED8000C25DDE4F488259826A827B82CE52D14078
:10ED9000CE5DDE4F28813981C252D1402F5F3F4F77
:10EDA000CE5DDE4F39832883C252D14062E070E0ED
:10EDB000C9010F943BF280E20F94DFF18DE20F94D2
:10EDC000DFF180E20F94DFF180E00F9424F2C25D66
:10EDD000DE4F8881CE52D1400F9424F280E20F940E
:10EDE000DFF18DE30F94DFF180E20F94DFF1ABBE32
:10EDF000F4012791B501A4014F5F5F4F6F4F7F4F23
:10EE00006BBFFA016791D501C4010296A11DB11D26
:10EE1000ABBFFC013791C25EDE4F3883CE51D1408B
:10EE2000D501C4010396A11DB11DABBFFC014791E3
:10EE3000C55DDE4F4883CB52D14054E0850E911C16
:10EE4000A11CB11C862F90E0A0E0B0E04424582E15
:10EE5000692E7A2E420E511C611C711C862FCE5CCD
:10EE6000DE4F2883C253D140CD5CDE4F6883C3534D
:10EE7000D1400F9424F280E20F94DFF1CE5CDE4F9C
:10EE80002881C253D140822F0F9424F280E20F9444
:10EE9000DFF1C55DDE4F8881CB52D1400F9424F263
:10EEA00080E20F94DFF1C25EDE4F8881CE51D14007
:10EEB0000F9424F280E20F94DFF1CE5CDE4F2881C4
:10EEC000C253D140CD5CDE4F6881C353D1408FEF38
:10EED000481658066104710431F460E088E392EE4C
:10EEE0000F94FAF1D1C0D301C2018827907CAA27E0
:10EEF000BB278115904CA105B10509F040C0A301C5
:10EF000092013F7344275527C25EDE4F2883398321
:10EF10004A835B83CE51D14029013A01C25DDE4F65
:10EF2000288139814A815B81CE52D140420E531EE5
:10EF3000641E751E440C551C661C771C60E081E342
:10EF400092EE0F94FAF1C15EDE4F8881CF51D1402D
:10EF50000F9424F2C25EDE4F8881CE51D1400F94CF
:10EF600024F280E20F94DFF18EE30F94DFF180E072
:10EF70000F9424F2852D0F9424F2842D83C0D301A5
:10EF8000C2018E709E7FAA27BB278C309449A105B1
:10EF9000B10509F079C0C55DDE4F4881CB52D14043
:10EFA000842F90E0A0E0B0E04424582E692E7A2E01
:10EFB000C25EDE4F5881CE51D140450E511C611CBE
:10EFC000711C822F817090E0A0E0B0E0DC019927F5
:10EFD0008827480E591E6A1E7B1E822F807F90E074
:10EFE000A0E0B0E0E1E1880F991FAA1FBB1FEA95DE
:10EFF000D1F7480E591E6A1E7B1E6170862F90E065
:10F00000A0E0B0E0F5E1880F991FAA1FBB1FFA9599
:10F01000D1F7480E591E6A1E7B1EA3019201220FD2
:10F02000331F441F551FC25EDE4F288339834A8336
:10F030005B83CE51D14060E08CE292EE0F94FAF106
:10F04000862D0F9424F2852D0F9424F2842D0F9495
:10F0500024F280E20F94DFF18EE30F94DFF1C05EC3
:10F06000DE4F8881C052D1400F9424F2C15EDE4F42
:10F070008881CF51D1400F9424F2C25EDE4F888147
:10F08000CE51D1400F9424F20F940EF2CE5DDE4F9C
:10F0900048815981C252D1404D34510509F06ACEA0
:10F0A000FDCB62E086E391EE0F9414F260E081E222
:10F0B00092EE0F94FAF10F946FF2982F9F75892FAB
:10F0C000CE5CDE4F9883C253D1400F94DFF10F9492
:10F0D0000EF2CE5CDE4F9881C253D1408FEB890F88
:10F0E0008A3108F07DC09434E1F140F49234D9F0D3
:10F0F00048F5913409F070C011B909C0963409F48B
:10F100004EC0F0F1973409F067C013BB57C080912F
:10F11000C00087FD7BCD82B1809582B988EC90E0FC
:10F120000F94EBF1F4CF14B98091C00087FD08C0B3
:10F1300085B1809585B988EC90E00F94EBF1F4CF20
:10F1400015B865CD17B98091C00087FD08C088B19A
:10F15000809588B988EC90E00F94EBF1F4CF18B863
:10F1600056CD1AB98091C00087FD08C08BB180953B
:10F170008BB988EC90E00F94EBF1F4CF1BB847CD3E
:10F180001DB98091C00087FD08C08EB180958EB9F1
:10F1900088EC90E00F94EBF1F4CF1EB838CD10BBA3
:10F1A0008091C00087FD08C081B3809581BB88EC49
:10F1B00090E00F94EBF1F4CF11BA29CD8091C0000B
:10F1C00087FD08C084B3809584BB88EC90E00F94E1
:10F1D000EBF1F4CF14BA1BCD60E08EE092EE07C0E5
:10F1E00060E08DEF91EE03C060E088E293EE0F9453
:10F1F00014F254CBA12CB12C633001F120F4613016
:10F2000071F038F014C0653029F1E0F0663099F102
:10F2100035C08B3109F44AC200E010E0CDCA88261F
:10F22000C65DDE4F8883CA52D14062E0F5CF282FF9
:10F2300030E0322F2227882663E0EECF282B882665
:10F2400064E0EACF8E3009F035C28826212C312CBB
:10F2500065E0E2CFA1014F5F5F4FE1E0F0E0EC0F2E
:10F26000FD1FE20DF31D808388264217530709F422
:10F2700023C21A01D1CF88111DC202C0673061F6C6
:10F28000912C2981233109F4CCC060F5263009F492
:10F29000B5C0F8F4223009F4C2C0233009F46AC0C2
:10F2A000213009F0A6C11A8288E08B8381E48C8327
:10F2B00086E58D8382E58E8389E48F8383E5888765
:10F2C00080E589878FE58A8782E38B870BE010E0F2
:10F2D00094C1213109F45DC008F083C0203109F4E4
:10F2E0009EC087C1283109F462C048F4253109F471
:10F2F00098C008F432C1263109F42FC17AC12B31EC
:10F3000009F44AC02D3161F02A3109F072C11A8224
:10F31000E1E0F0E089E080935700E491EB8355C091
:10F320009D81903339F48F818823B1F08130B1F41D
:10F3300088EA17C0892F807599F0903521F489E00B
:10F34000E0E0F0E005C0983559F489E0E3E0F0E052
:10F3500080935700849105C08EE103C082E001C014
:10F3600080E01A821B829C831D828E831F8207E0AD
:10F3700010E043C1EA81E059E33028F4F0E0E050C6
:10F38000FE4F808101C080E01A828B8303E010E091
:10F3900034C19924939443C08D81882321F0813016
:10F3A00021F488EA10C08EE10EC082E00CC08B818F
:10F3B000803599F48C81883061F4E2E0F0E089E0F6
:10F3C0008093570084911A828B831C8204E010E0A2
:10F3D00014C189E0E0E0F0E0F3CF89E0E3E0F0E0A1
:10F3E000EFCF80EC8A8302E010E0CA5DDE4F188226
:10F3F00019821A821B82C652D140FFC08A81CB80FB
:10F40000D12CE12CF12C7601DD24CC24F82A8D813D
:10F41000C82A8C81D82ACC0CDD1CEE1CFF1C1A8259
:10F42000EAC00A8110E0102F00278B81082B2331BE
:10F4300009F05DC0CA5DDE4F488059806A807B80DC
:10F44000C652D140411420EC520623E062067104FA
:10F45000E8F483E0F20160925B0080935700E89546
:10F4600007B600FCFDCFCA5DDE4F288139814A8195
:10F470005B81C652D1403F5F4F4F5F4FCA5DDE4F49
:10F48000288339834A835B83C652D1402B8526016A
:10F490003701CE010B9641E0DC011296CD01FD0152
:10F4A0003197508130E0352B0901F20160925B0009
:10F4B00040935700E895112432E0430E511C611C23
:10F4C000711C025011090115110511F02C91E4CFA6
:10F4D00085E0F601E0925B0080935700E89507B65F
:10F4E00000FCFDCF81E180935700E89532C02601F2
:10F4F00037017694679457944794CE5DDE4F4882E7
:10F5000059826A827B82C252D1403E012BE0620E58
:10F51000711C412C512C4016510689F0D3016D917C
:10F520003D01CE5DDE4F88819981C252D140840D6C
:10F53000951D0F94B1FBBFEF4B1A5B0AECCF612C0A
:10F54000712C440C551C661C771C4C0C5D1C6E1CED
:10F550007F1C1A82730162014EC08A8190E0982F4D
:10F5600088273B81832B8C010D5F1F4F1A8224312A
:10F57000A1F4DE011396EBBEF601279136912C9390
:10F580001296FD0131973083E2E0CE0ED11CE11CD2
:10F59000F11C0297009779F72AC0FE0133969C016F
:10F5A000B701A60141BD452E562E672E772442BCD9
:10F5B0004F5F5F4F6F4F7F4FF89AA0B5A1932150D7
:10F5C00031092115310571F7AC014150510960E055
:10F5D00070E04F5F5F4F6F4F7F4FC40ED51EE61E2A
:10F5E000F71EA3E0B0E0AC0FBD1FA80FB91F1C921F
:10F5F00004C080EC8A8302E010E08BE10F94DFF11D
:10F60000C65DDE4F8881CA52D1400F94DFF1812F51
:10F610000F94DFF1802F0F94DFF18EE00F94DFF174
:10F6200055E1852EC65DDE4F4880CA52D140842404
:10F63000802681269E012F5F3F4F3901020F131F45
:10F640006016710641F0D3015D903D01852D0F9448
:10F65000DFF18524F5CF882D0F94DFF1C65DDE4FF5
:10F660002881CA52D1402F5FC65DDE4F2883CA521F
:10F67000D1408EB198E089278EB9911003C000E087
:10F6800010E097C86B98739884E690E00F94EBF1C4
:10F6900000008091C0008D7F8093C00081E1809345
:10F6A0005700E895EE27FF270994FFCF4BE1842E02
:10F6B00061E0B2CD60E0B0CD190166E0ADCD97FB61
:10F6C000072E16F4009407D077FD09D00F9495FB10
:10F6D00007FC05D03EF4909581959F4F0895709555
:10F6E00061957F4F0895A1E21A2EAA1BBB1BFD0155
:10F6F0000DC0AA1FBB1FEE1FFF1FA217B307E40711
:10F70000F50720F0A21BB30BE40BF50B661F771F68
:10F71000881F991F1A9469F7609570958095909548
:10F720009B01AC01BD01CF010895AA1BBB1B51E198
:10F7300007C0AA1FBB1FA617B70710F0A61BB70B61
:10F74000881F991F5A95A9F780959095BC01CD0106
:10F750000895F999FECF92BD81BDF89A992780B599
:10F760000895262FF999FECF1FBA92BD81BD20BD05
:10F770000FB6F894FA9AF99A0FBE01960895F89484
:02F78000FFCFB9
:04F782000F020A0068
:040000033000E000E9
:00000001FF
